:100000000C9446000C9465000C9465000C946500FB
:100010000C9465000C9465000C9465000C946500CC
:100020000C9465000C9465000C9465000C946500BC
:100030000C9465000C9465000C9465000C946500AC
:100040000C9465000C9465000C9465000C9465009C
:100050000C9465000C9465000C9465000C9465008C
:100060000C9465000C9465000C9465000C9465007C
:100070000C9465000C9465000C940C060C946500BF
:100080000C94C8050C9465000C94650011241FBEE7
:10009000CFEFD0E1DEBFCDBF11E0A0E0B1E0E2EAFA
:1000A000FDE100E00BBF02C007900D92AA33B1073B
:1000B000D9F712E0AAE3B1E001C01D92A43EB10756
:1000C000E1F70E9446060C94CF0E0C940000CF93EB
:1000D000DF93CDB7DEB780913A01882F90E0823070
:1000E000910529F18330910534F4009769F181304D
:1000F000910559F02CC084309105F9F084309105B8
:10010000CCF085309105E1F022C080915201882326
:10011000E9F488E1E0E0F1E0AAEEB1E001900D92AF
:100120008A95E1F70E94A30510923A010FC0109240
:100130003A010DC010923A010AC010923A0107C06C
:1001400010923A01000003C0000001C00000DF91DE
:10015000CF910895CF93DF93CDB7DEB780913B0168
:10016000882F90E08230910509F1833091053CF4AD
:10017000009709F455C08130910571F054C0843066
:10018000910509F446C0843091050CF43FC08530D8
:10019000910509F441C047C00E942F0180913B01A5
:1001A0008F5F80933B0110923B013DC080915201D3
:1001B0008823C1F580915B0190915C01A0915D0164
:1001C000B0915E012B2F2F932A2F2F93292F2F933E
:1001D0008F9388E191E0892F8F9388E191E08F934D
:1001E0008AEE91E0892F8F938AEE91E08F930E949F
:1001F000F80B8DB79EB708960FB6F894DEBF0FBE0A
:10020000CDBF0E94A30510923B010CC010923B0190
:100210000AC010923B0107C010923B01000003C0CE
:10022000000001C00000DF91CF910895CF93DF93CC
:10023000CDB7DEB781E390E021E330E0F901208122
:100240002061FC01208381E390E021E330E0F901AB
:1002500020812F7DFC012083DF91CF9108950F93A2
:100260001F93CF93DF93CDB7DEB72F970FB6F894D8
:10027000DEBF0FBECDBF198282E390E022E330E003
:10028000F90120812061FC01208380E090E0A8E456
:10029000B3E48A839B83AC83BD8326E636E646EED1
:1002A00054E46A817B818C819D810E946F08DC010E
:1002B000CB018E839F83A887B98720E030E040E898
:1002C0005FE36E817F81888599850E94B2098823CA
:1002D0002CF481E090E09B878A8742C020E03FEFCA
:1002E0004FE757E46E817F81888599850E94540984
:1002F000181664F520E030E040E251E46A817B8129
:100300008C819D810E946F08DC01CB01BC01CD0175
:100310000E949406DC01CB019B878A8712C088EB80
:1003200090E09D878C878C859D858C01C801019705
:10033000F1F78C011D870C878A859B8501979B8728
:100340008A878A859B85009751F717C06E817F81C8
:10035000888599850E949406DC01CB019B878A875A
:100360008A859B859F878E878E859F858C01F80166
:100370003197F1F78F011F870E8782E390E022E328
:1003800030E0F90120812F7EFC01208380E390E0A2
:10039000FC0180818072898301C0000080E390E0CD
:1003A000FC0180818072898389818823B1F30000F8
:1003B00010925B0110925C0110925D0110925E013F
:1003C00001C0000080915B0190915C01A0915D01F2
:1003D000B0915E010196A11DB11D80935B019093C8
:1003E0005C01A0935D01B0935E0180E390E0FC01AD
:1003F0008081807289838981882319F700002F9674
:100400000FB6F894DEBF0FBECDBFDF91CF911F9125
:100410000F910895CF93DF93CDB7DEB780913C0164
:10042000882F90E08330910509F447C0843091050E
:100430004CF481309105E9F0823091055CF500972C
:1004400069F055C08530910509F447C085309105A4
:10045000D4F18630910509F443C049C08091E90187
:10046000883709F041C080913C018F5F80933C0147
:100470003BC08091E901893731F480913C018F5F65
:1004800080933C0133C08091E901883779F1109263
:100490003C012CC08091E901813321F483E08093F9
:1004A0003C0125C08091E901823321F484E08093EE
:1004B0003C011DC010923C011AC081E080933B01B9
:1004C00010923C0114C08091E90180935F0181E0AA
:1004D00080933D0110923C010AC010923C0107C07C
:1004E00010923C01000003C0000001C00000DF9139
:1004F000CF910895CF93DF93CDB7DEB780913D01C3
:10050000882F90E08130910559F0823091050CF4EC
:1005100051C08230910591F08330910581F14FC037
:1005200010923F0110923E0180913D018F5F8093B8
:100530003D018CE290E0FC01108241C080913E01BF
:1005400090913F01019690933F0180933E018091ED
:100550003E0190913F01843FF1E09F0769F58CE2F5
:1005600090E020915F01FC01208310923F011092E6
:100570003E0180913D018F5F80933D011DC08091C0
:100580003E0190913F01019690933F0180933E017F
:1005900080913E0190913F018033F5E79F0771F410
:1005A0008CE290E0FC01108210923D0181E080938A
:1005B0003B0104C0000003C0000001C00000DF9147
:1005C000CF910895CF93DF93CDB7DEB780914001EF
:1005D000882F90E082309105E1F0833091053CF462
:1005E000009709F4C4C08130910551F0C7C0833031
:1005F000910509F471C08430910509F495C0BEC01D
:1006000081E080933B01809140018F5F80934001A6
:10061000B5C080913B01882309F0ABC080915B019C
:1006200090915C01A0915D01B0915E01803223E068
:100630009207A105B105D0F48CE290E0FC01108294
:10064000809152018823E1F789E790E09093EB01D4
:100650008093EA010E94A305809152018823E1F76B
:10066000809140018F5F8093400183C08CE290E0D5
:1006700028E1FC012083809152018823E1F78091D9
:100680005B0190915C01A0915D01B0915E012B2F07
:100690002F932A2F2F93292F2F938F9381E291E06D
:1006A000892F8F9381E291E08F938AEE91E0892FD9
:1006B0008F938AEE91E08F930E94F80B8DB79EB7CF
:1006C00008960FB6F894DEBF0FBECDBF0E94A305FB
:1006D00081E0809340014DC0809143018F5F809302
:1006E000430180914301843631F48CE290E0FC01B7
:1006F0001082109243018091410190914201019634
:1007000090934201809341018CE290E02AE5FC0144
:10071000208380914101909142018436910559F5E1
:1007200081E08093400127C08CE290E026E2FC014A
:10073000208381E080933B0180915B0190915C017B
:10074000A0915D01B0915E018132F3E09F07A105A8
:10075000B10598F08CE290E0FC0110828CE290E010
:1007600027E1FC01208381E08093400106C0000066
:1007700005C0000003C0000001C00000DF91CF9160
:100780000895CF93DF93CDB7DEB780914401882FD2
:1007900090E08330910509F48EC08430910544F4D3
:1007A0008130910591F0823091050CF06CC093C1BD
:1007B0008530910509F4AAC0853091050CF484C0F8
:1007C0008630910509F4BCC086C180914701882F0D
:1007D00090E08130910579F082309105B9F0009771
:1007E00001F58AE490E020E233E0FC0131832083CC
:1007F00010924B0116C08AE490E024E135E0FC0140
:100800003183208381E080934B010BC08AE490E028
:1008100028E037E0FC013183208382E080934B01A4
:10082000000080914A01882399F480914701823029
:1008300049F481E080934A0180914701815080937F
:10084000470117C0809147018F5F8093470111C016
:1008500080914701882341F410924A018091470119
:100860008F5F8093470105C080914701815080933D
:1008700047011092490110924801809144018F5F15
:100880008093440128C180914801909149010196CB
:1008900090934901809348018091480190914901CA
:1008A0008034FFE19F0709F013C1809144018F5FFD
:1008B000809344010DC181E080933B01809144010C
:1008C0008F5F8093440107C180913B01882309F029
:1008D00001C180914B01282F30E080915B01909104
:1008E0005C01A0915D01B0915E01220F331F220FC8
:1008F000331F205A3E4FF90180839183A283B38333
:10090000809144018F5F80934401E4C08CE290E0C9
:10091000FC011082809152018823E1F789E790E081
:100920009093EB018093EA010E94A305809152010C
:100930008823E1F7809144018F5F80934401CBC00D
:100940008091600190916101A0916201B091630179
:100950008032F3E09F07A105B10520F481E0809388
:100960004C0102C010924C0180916401909165018C
:10097000A0916601B0916701803223E09207A10542
:10098000B10520F481E080934D0102C010924D0129
:100990008091680190916901A0916A01B0916B0109
:1009A0008032E3E09E07A105B10520F481E0809349
:1009B0004E0102C010924E0180914C01882369F4CF
:1009C00080914D01882349F480914E01882329F4B8
:1009D0008CE290E027E1FC01208380914C01882388
:1009E00069F480914D01882349F480914E01813052
:1009F00029F48CE290E027E6FC01208380914C01F1
:100A0000882369F480914D01813049F480914E0131
:100A1000882329F48CE290E027E6FC012083809172
:100A20004C01882369F480914D01813049F4809113
:100A30004E01813029F48CE290E027E6FC0120830E
:100A400080914C01813069F480914D01882349F4F3
:100A500080914E01882329F48CE290E027E5FC0187
:100A6000208380914C01813069F480914D0188236D
:100A700049F480914E01813029F48CE290E027E71F
:100A8000FC01208380914C01813069F480914D01FB
:100A9000813049F480914E01882329F48CE290E062
:100AA00027E5FC01208380914C01813069F480911D
:100AB0004D01813049F480914E01813029F48CE25E
:100AC00090E027E7FC01208381E08093440103C08C
:100AD000000001C00000DF91CF910895CF93DF9314
:100AE000CDB7DEB789E290E02FE2FC01208380E9F8
:100AF00090E0FC01108285E990E026E0FC01208373
:100B00008AE290E028E0FC012083DF91CF910895F4
:100B1000CF93DF93CDB7DEB789E990E02FE2FC01F8
:100B2000208388E990E0FC0110828DE990E026E0C6
:100B3000FC0120838AE990E028EDFC012083789471
:100B4000DF91CF910895CF93DF93CDB7DEB71092A9
:100B5000510180915101882F90E086519E4FFC01F8
:100B60008081882381F081E0809352018CE990E0BC
:100B700020915101222F30E026513E4FF901208172
:100B8000FC01208302C010925201DF91CF910895A1
:100B90001F920F9200905F000F92112400905B0053
:100BA0000F9210925B002F933F938F939F93EF933D
:100BB000FF93CF93DF93CDB7DEB7809151018F5F65
:100BC0008093510180915101882F90E086519E4F72
:100BD000FC018081882369F08CE990E0209151012B
:100BE000222F30E026513E4FF9012081FC01208365
:100BF00002C010925201DF91CF91FF91EF919F912E
:100C00008F913F912F910F9000925B000F90009277
:100C10005F000F901F9018951F920F9200905F0039
:100C20000F92112400905B000F9210925B002F93A3
:100C30003F934F935F936F937F938F939F93AF9364
:100C4000BF93EF93FF93CF93DF93CDB7DEB78CE9DC
:100C500090E0FC0180818093E9010E940A02DF910B
:100C6000CF91FF91EF91BF91AF919F918F917F9124
:100C70006F915F914F913F912F910F9000925B0088
:100C80000F9000925F000F901F901895CF93DF9305
:100C900000D0CDB7DEB787E390E027E330E0F9017D
:100CA00020812062FC0120838BE490E025E0FC01A0
:100CB00020838AE490E02CEDFC01208387E490E01F
:100CC0002FEFFC01208386E490E02FEFFC012083CE
:100CD0008AE790E0FC0110828FE490E022E8FC01BA
:100CE00020838EE490E02AE1FC0120831A8219829D
:100CF0000E9416010E946E050E94880510923A011A
:100D000010923B0110923C0110923D011092400163
:100D100081E0809344010E94AA000E9467000E9423
:100D2000E2020E94C103F7CFCF92DF92EF92FF92CF
:100D30000F931F936B017C0120E030E040E05FE403
:100D40000E94830987FD0EC020E030E040E05FE4B0
:100D5000C701B6010E943F080E94E1098B019C0176
:100D6000305806C0C701B6010E94E1098B019C0101
:100D7000B801C9011F910F91FF90EF90DF90CF90C4
:100D80000895A0E0B0E0E7ECF6E00C94C50B3C0160
:100D9000CB01EA01D3012C91223008F43EC1FB01C2
:100DA0003081323008F436C1243071F4343009F027
:100DB00034C111962C918181281709F42EC1B1E319
:100DC0006B2EB1E07B2E29C1343009F423C13230BF
:100DD00091F4223009F021C128E0F301DA010190F9
:100DE0000D922A95E1F7DB0111968C91F301918127
:100DF0008923898311C1223009F40CC1D3011296D1
:100E0000ED91FC911397DB0112966D917C911397F4
:100E1000D30114960D911D912D913C911797DC01F2
:100E20001496CD90DD90ED90FC901797AF01461B86
:100E3000570BDA0157FF04C0AA27BB27A41BB50B29
:100E4000A032B1050CF065C0141615067CF5B7018B
:100E5000A6010A2E04C076956795579547950A9482
:100E6000D2F7812C912C5401839404C0880C991CD6
:100E7000AA1CBB1CAA95D2F7B1E08B1A9108A10855
:100E8000B1088C209D20AE20BF20C12CD12C760132
:100E9000C39481149104A104B10419F4C12CD12C80
:100EA0007601C42AD52AE62AF72A3EC0452BE1F16D
:100EB000EA0FFB1FB901A8010A2E04C076956795B9
:100EC000579547950A94D2F7812C912C540183941D
:100ED00004C0880C991CAA1CBB1CAA95D2F7A1E0DF
:100EE0008A1A9108A108B10880229122A222B32275
:100EF00001E010E020E030E081149104A104B1048D
:100F000019F400E010E09801042B152B262B372B49
:100F10000BC06E177F0724F4C12CD12C760104C0BE
:100F2000FB0100E010E09801D30111964C91DC0127
:100F300011968C91481709F442C0442349F0D70117
:100F4000C601801B910BA20BB30B8C019D0104C049
:100F50000C191D092E093F0937FD04C01982FB83B6
:100F6000EA830BC081E08983FB83EA833095209577
:100F7000109501951F4F2F4F3F4F0C831D832E83DC
:100F80003F830DC0880F991FAA1FBB1F8C839D83B1
:100F9000AE83BF838A819B8101979B838A838C81E7
:100FA0009D81AE81BF818C019D01015011092109F4
:100FB00031090F3F1F4F2F4F3F4320F30BC0498391
:100FC000FB83EA830C0D1D1D2E1D3F1D0C831D830D
:100FD0002E833F8383E088830C811D812E813F8196
:100FE00037FF1AC0D901C80181709927AA27BB27EA
:100FF0003695279517950795802B912BA22BB32B10
:101000008C839D83AE83BF838A819B8101969B8362
:101010008A8302C03C0101C03E01C301CDB7DEB7E7
:10102000EEE00C94E10BA0E2B0E0E9E1F8E00C9412
:10103000D10B6D8F7E8F8F8F98A3298F3A8F4B8F17
:101040005C8FBE016F5E7F4FCE014D960E94F10A0C
:10105000BE01675F7F4FCE0149960E94F10AAE0143
:101060004F5F5F4FBE01675F7F4FCE0141960E9489
:10107000C1060E94300AA096E2E00C94ED0BA0E2BB
:10108000B0E0E5E4F8E00C94D10B6D8F7E8F8F8F8C
:1010900098A3298F3A8F4B8F5C8FBE016F5E7F4F75
:1010A000CE014D960E94F10ABE01675F7F4FCE01CF
:1010B00049960E94F10A8A8591E089278A87AE01C4
:1010C0004F5F5F4FBE01675F7F4FCE0141960E9429
:1010D000C1060E94300AA096E2E00C94ED0BA0E25B
:1010E000B0E0E5E7F8E00C94C30B6D8F7E8F8F8F37
:1010F00098A3298F3A8F4B8F5C8FBE016F5E7F4F15
:10110000CE014D960E94F10ABE01675F7F4FCE016E
:1011100049960E94F10A9989923008F412C0898593
:10112000823008F41AC0943021F4823009F4B4C03B
:1011300008C0843021F4923009F4AEC00EC0923061
:1011400051F481E02A899A85291301C080E08A8BB5
:10115000CE014196A3C0823051F481E02A899A855C
:10116000291301C080E08A87CE01099697C08D8837
:101170009E88AF88B88C0D851E852F853889E0E262
:10118000F0E080E090E0DC01C12CD12C760140E061
:1011900050E0BA0180FE18C0400F511F621F731F3C
:1011A0008C0D9D1DAE1DBF1D412C512C3201439451
:1011B000401751076207730718F0412C512C320178
:1011C000840D951DA61DB71DCC0CDD1CEE1CFF1C4F
:1011D00037FF02C06894C0F8000F111F221F331F91
:1011E000B694A794979487943197A1F62B893C895C
:1011F000EB85FC852E0F3F1F2E5F3F4F3C832B83DB
:1012000021E0EA893A85E31301C020E02A83EB81DB
:10121000FC810CC080FF05C0769567955795479572
:101220007068B695A795979587953196B7FDF2CFDB
:101230009F010CC0880F991FAA1FBB1F77FD8160FB
:10124000440F551F661F771F215031090097A105D4
:10125000E0E4BE0778F32B833C838C019D010F777C
:10126000112722273327003411052105310559F4B0
:1012700087FD09C0452B462B472B29F0805C9F4FEB
:10128000AF4FBF4F80788D839E83AF83B88783E055
:101290008983CE01019602C081E391E00E94300A69
:1012A000A096E0E10C94DF0BA8E1B0E0EAE5F9E0FC
:1012B0000C94D10B6D8B7E8B8F8B988F298B3A8BF7
:1012C0004B8B5C8BBE01675F7F4FCE0145960E94C2
:1012D000F10ABE016F5F7F4FCE0141960E94F10A75
:1012E0008985823058F08981823040F0BE016F5F7D
:1012F0007F4FCE0109960E94600B01C08FEF689668
:10130000E2E00C94ED0BA8E1B0E0E9E8F9E00C9420
:10131000D10B6D8B7E8B8F8B988F298B3A8B4B8B60
:101320005C8BBE01675F7F4FCE0145960E94F10A3C
:10133000BE016F5F7F4FCE0141960E94F10A898501
:10134000823058F08981823040F0BE016F5F7F4F5C
:10135000CE0109960E94600B01C08FEF6896E2E013
:101360000C94ED0BA8E1B0E0E8EBF9E00C94D10BA4
:101370006D8B7E8B8F8B988F298B3A8B4B8B5C8BF5
:10138000BE01675F7F4FCE0145960E94F10ABE0104
:101390006F5F7F4FCE0141960E94F10A89858230AE
:1013A00058F08981823040F0BE016F5F7F4FCE01DF
:1013B00009960E94600B01C081E06896E2E00C94FF
:1013C000ED0BACE0B0E0E7EEF9E00C94CF0B6987F1
:1013D0007A878B879C87BE016F5F7F4FCE0109960E
:1013E0000E94F10A8981823091F1823080F184304B
:1013F00041F48A81882331F100E010E020E030E8F8
:1014000029C02B813C8137FD22C02F3131058CF75B
:101410008EE190E0821B930B0D811E812F81388518
:1014200004C036952795179507958A95D2F78A8136
:10143000882381F030952095109501951F4F2F4FEF
:101440003F4F08C00FEF1FEF2FEF3FE703C000E053
:1014500010E09801B801C9012C96E4E00C94EB0B64
:101460000F931F93CF93FC0144815581668177814F
:10147000C1818081823020F460618FEF90E0A3C051
:10148000843009F49BC0823009F492C041155105A3
:101490006105710509F48FC02281338122388FEFF5
:1014A00038070CF057C0E2E8FFEFE21BF30BEA311C
:1014B000F10564F58A019B010E2E04C0369527952F
:1014C000179507950A94D2F781E090E0A0E0B0E08C
:1014D00004C0880F991FAA1FBB1FEA95D2F7019776
:1014E000A109B10984239523A623B72341E050E045
:1014F00060E070E0892B8A2B8B2B19F440E050E0E0
:10150000BA01402B512B622B732B03C040E050E0FB
:10151000BA01DB01CA018F779927AA27BB2780343C
:101520009105A105B10539F447FF09C0405C5F4F43
:101530006F4F7F4F04C0415C5F4F6F4F7F4F81E023
:1015400090E041155105610520E4720748F580E0FF
:1015500090E026C0203831058CF5DB01CA018F7779
:101560009927AA27BB2780349105A105B10539F435
:1015700047FF09C0405C5F4F6F4F7F4F04C0415C25
:101580005F4F6F4F7F4F77FD04C0C90181589F4F58
:1015900007C07695679557954795C90180589F4F25
:1015A00097E076956795579547959A95D1F70BC033
:1015B00080E090E005C080E090E005C08FEF90E013
:1015C00040E050E0BA01982F9695C0FB97F9362F6E
:1015D00080FB37F9642F752F832FCF911F910F91C7
:1015E0000895CF92DF92EF92DC01FB01CC9011962F
:1015F000DC90119712968C9112973FE7E32EE82228
:101600006E2DA60170E0982F991F9927991F1396A8
:101610002C91822F880F892B90E027FB222720F91D
:101620002183009729F5411551056105710511F4D4
:1016300082E027C082E89FEF9383828327E0440FF4
:10164000551F661F771F2A95D1F783E0808309C055
:10165000440F551F661F771F8281938101979383E3
:10166000828341155105610580E4780788F320C025
:101670008F3F910579F4411551056105710519F404
:1016800084E0808319C0E4FE03C081E0808310C041
:1016900010820EC08F5791099383828383E08083E9
:1016A00087E0440F551F661F771F8A95D1F7706436
:1016B0004483558366837783EF90DF90CF900895BE
:1016C000CF93FC01DB019081923008F452C08C91E1
:1016D000823008F44EC0943071F4843039F411969D
:1016E0002C9130E08181281B310948C081818823F9
:1016F00009F43FC03BC0843029F411968C918111CC
:1017000038C034C0923019F48230B9F735C0823015
:1017100069F3C18111968C911197C8131DC0228164
:10172000338112968D919C911397821793070CF435
:1017300013C0281739070CF417C0448155816681FE
:10174000778114968D919D910D90BC91A02D841759
:101750009507A607B70718F4C11108C00AC04817B3
:1017600059076A077B0740F4C11103C02FEF3FEF11
:1017700005C021E030E002C020E030E0C901CF9197
:1017800008952F923F924F925F926F927F928F9225
:101790009F92AF92BF92CF92DF92EF92FF920F9300
:1017A0001F93CF93DF93CDB7DEB7CA1BDB0B0FB60A
:1017B000F894DEBF0FBECDBF09942A8839884888C7
:1017C0005F846E847D848C849B84AA84B984C8845D
:1017D000DF80EE80FD800C811B81AA81B981CE0F54
:1017E000D11D0FB6F894DEBF0FBECDBFED01089539
:1017F0000F931F93CF93DF93CDB7DEB760970FB6EC
:10180000F894DEBF0FBECDBF0F89188D86E08C83A4
:101810001A8309838FEF9FE79E838D83AE01455E18
:101820005F4F588B4F87698D7A8DCE0101960E944C
:10183000290CEF81F885E00FF11F108260960FB63A
:10184000F894DEBF0FBECDBFDF91CF911F910F91F6
:1018500008952F923F924F925F926F927F928F9254
:101860009F92AF92BF92CF92DF92EF92FF920F932F
:101870001F93CF93DF93CDB7DEB72C970FB6F894B5
:10188000DEBF0FBECDBF7C016B018A01FC01178258
:101890001682838181FFC7C188248394912C8C0E8A
:1018A0009D1EF7019381F60193FD859193FF819130
:1018B0006F01882309F4B3C1853239F493FD859112
:1018C00093FF81916F01853229F4B70190E00E9466
:1018D000450EE7CF712C312C20E02032A8F48B325A
:1018E00061F028F4803251F0833271F40BC08D32F4
:1018F00039F0803349F4216028C02260246025C07B
:10190000286023C0206121C027FD27C0382F305315
:101910003A3078F426FF06C0FAE07F9E300D11249D
:10192000732E13C08AE0389E300D1124332E2062AE
:101930000CC08E3221F426FD72C1206406C08C36A4
:1019400011F4206802C0883641F4F60193FD8591B8
:1019500093FF81916F018111C0CF982F95549330DF
:1019600018F09052933028F40C5F1F4FFFE3F98377
:101970000DC0833631F0833771F0833509F05EC0D6
:1019800023C0F801808189830E5F1F4F6624639412
:10199000712C540115C02801F2E04F0E511CF801C2
:1019A000A080B18026FF03C0672D70E002C06FEFFA
:1019B0007FEFC5012C870E943A0E3C0182012C85E5
:1019C0006FE7262E222218C02801F2E04F0E511C8C
:1019D000F801A080B18026FF03C0672D70E002C02F
:1019E0006FEF7FEFC5012C870E942F0E3C012C85E5
:1019F00050E8252E222A820123FC1CC006C0B70114
:101A000080E290E00E94450E3A94832D90E06816A3
:101A10007906A8F30FC0F50127FC859127FE819177
:101A20005F01B70190E00E94450E31103A94F1E059
:101A30006F1A71086114710471F7EEC0843611F0E9
:101A4000893641F5F80127FF07C0608171818281E5
:101A500093810C5F1F4F08C060817181882777FDDB
:101A60008095982F0E5F1F4F4FE6642E622297FFDE
:101A700009C090958095709561957F4F8F4F9F4FCE
:101A8000F0E86F2A2AE030E0A4010E94710EA82E2F
:101A9000A81844C0853731F43FEEB32EB2222AE0B5
:101AA00030E024C099EFB92EB2228F36B9F020F47D
:101AB000883509F0B4C00DC0803721F0883709F0AF
:101AC000AEC002C020E1B22AB4FE0BC084E0B82A46
:101AD00008C024FF09C0E6E0BE2A06C028E030E0C6
:101AE00005C020E130E002C020E132E0F801B7FE9D
:101AF00007C060817181828193810C5F1F4F06C096
:101B00006081718180E090E00E5F1F4FA4010E9410
:101B1000710EA82EA8188FE7682E6B2066FE0BC0EA
:101B2000362D3E7FA71450F464FE0AC062FC08C044
:101B3000362D3E7E05C0BA2C362D03C0BA2C01C00E
:101B4000B72C34FF0DC0FE01EA0DF11D80818033FA
:101B500011F4397E09C032FF06C0B394B39404C0B7
:101B6000832F867809F0B39433FD14C030FF0FC083
:101B70007A2CB31460F4730C7B18B32C08C0B70133
:101B800080E290E03C870E94450EB3943C85B314FC
:101B9000B0F304C0B31410F43B1801C0312C34FF6F
:101BA00012C0B70180E390E03C870E94450E3C855F
:101BB00032FF1EC031FF03C088E590E002C088E715
:101BC00090E0B7010CC0832F867891F031FD02C000
:101BD00080E201C08BE237FD8DE2B70190E00E9408
:101BE000450E06C0B70180E390E00E94450E7A944E
:101BF000A714C0F3AA94F401EA0DF11DB701808186
:101C000090E00E94450EA110F5CF06C0B70180E21A
:101C100090E00E94450E3A943110F8CF42CEF70181
:101C20002681378102C02FEF3FEFC9012C960FB6F6
:101C3000F894DEBF0FBECDBFDF91CF911F910F9102
:101C4000FF90EF90DF90CF90BF90AF909F908F90DC
:101C50007F906F905F904F903F902F900895FC0180
:101C60000590615070400110D8F7809590958E0FC7
:101C70009F1F0895FC016150704001900110D8F73A
:101C8000809590958E0F9F1F08950F931F93CF936C
:101C9000DF938C01EB018B8181FD03C00FEF1FEF00
:101CA0001AC082FF0DC02E813F818C819D81281733
:101CB000390764F4E881F9810193F983E88306C068
:101CC000E885F985802F0995892B41F78E819F81C1
:101CD00001969F838E83C801DF91CF911F910F9151
:101CE0000895FA01AA27283051F1203181F1E894B2
:101CF0006F936E7F6E5F7F4F8F4F9F4FAF4FB1E0FF
:101D00003ED0B4E03CD0670F781F891F9A1FA11DF9
:101D1000680F791F8A1F911DA11D6A0F711D811DFA
:101D2000911DA11D20D009F468943F912AE0269FBF
:101D300011243019305D3193DEF6CF010895462F1E
:101D40004770405D4193B3E00FD0C9F7F6CF462FFF
:101D50004F70405D4A3318F0495D31FD4052419368
:101D600002D0A9F7EACFB4E0A69597958795779525
:101D70006795BA95C9F700976105710508959B01AC
:101D8000AC010A2E06945795479537952795BA9535
:101D9000C9F7620F731F841F951FA01D0895F89443
:021DA000FFCF73
:101DA20078787878787878787878787878787878B1
:101DB20078787878780A0D003E2020256C750A0D17
:101DC2000020787878787878787820256C750A0DF4
:0A1DD2000000000000000000000007
:00000001FF
