:100000000C9446000C9465000C9465000C946500FB
:100010000C9465000C9465000C9465000C946500CC
:100020000C9465000C9465000C9465000C946500BC
:100030000C9465000C9465000C9465000C946500AC
:100040000C9465000C9465000C9465000C9465009C
:100050000C9465000C9465000C9465000C9465008C
:100060000C9465000C9465000C9465000C9465007C
:100070000C9465000C9465000C945C040C94650071
:100080000C9418040C9465000C94650011241FBE98
:10009000CFEFD0E1DEBFCDBF11E0A0E0B1E0E4EEF4
:1000A000F9E100E00BBF02C007900D92AA33B1073F
:1000B000D9F712E0AAE3B1E001C01D92A13DB1075A
:1000C000E1F70E9496040C94F00C0C940000CF937E
:1000D000DF93CDB7DEB780913A01882F90E0823070
:1000E000910529F18330910534F4009769F181304D
:1000F000910559F02CC084309105F9F084309105B8
:10010000CCF085309105E1F022C080914701882331
:10011000E9F488E1E0E0F1E0A7EDB1E001900D92B3
:100120008A95E1F70E94F30310923A010FC01092F2
:100130003A010DC010923A010AC010923A0107C06C
:1001400010923A01000003C0000001C00000DF91DE
:10015000CF910895CF93DF93CDB7DEB780913B0168
:10016000882F90E082309105F1F0833091053CF4C6
:10017000009709F452C08130910569F051C0843074
:10018000910509F443C084309105ECF18530910567
:1001900009F43FC045C00E942C0180913B018F5F54
:1001A00080933B013DC0809147018823C1F5809138
:1001B000500190915101A0915201B09153012B2F08
:1001C0002F932A2F2F93292F2F938F9388E191E03C
:1001D000892F8F9388E191E08F9387ED91E0892FAC
:1001E0008F9387ED91E08F930E94190A8DB79EB788
:1001F00008960FB6F894DEBF0FBECDBF0E94F30382
:1002000010923B010CC010923B010AC010923B01BE
:1002100007C010923B01000003C0000001C00000B5
:10022000DF91CF910895CF93DF93CDB7DEB781E310
:1002300090E021E330E0F90120812061FC0120837E
:1002400081E390E021E330E0F90120812F7DFC0182
:100250002083DF91CF9108950F931F93CF93DF9366
:10026000CDB7DEB72F970FB6F894DEBF0FBECDBF68
:10027000198282E390E022E330E0F90120812061DD
:10028000FC01208380E090E0A8E4B3E48A839B83B0
:10029000AC83BD8326E636E646EE54E46A817B8174
:1002A0008C819D810E949006DC01CB018E839F830F
:1002B000A887B98720E030E040E85FE36E817F8166
:1002C000888599850E94D30788232CF481E090E0EB
:1002D0009B878A8742C020E03FEF4FE757E46E815B
:1002E0007F81888599850E947507181664F520E03E
:1002F00030E040E251E46A817B818C819D810E94E3
:100300009006DC01CB01BC01CD010E94B504DC01EB
:10031000CB019B878A8712C088EB90E09D878C87F2
:100320008C859D858C01C8010197F1F78C011D8793
:100330000C878A859B8501979B878A878A859B8501
:10034000009751F717C06E817F81888599850E943B
:10035000B504DC01CB019B878A878A859B859F87B3
:100360008E878E859F858C01F8013197F1F78F017B
:100370001F870E8782E390E022E330E0F9012081BD
:100380002F7EFC01208380E390E0FC01808180725D
:10039000898301C0000080E390E0FC0180818072CD
:1003A000898389818823B1F3000010925001109253
:1003B0005101109252011092530101C0000080912E
:1003C000500190915101A0915201B09153010196B9
:1003D000A11DB11D8093500190935101A093520132
:1003E000B093530180E390E0FC01808180728983A7
:1003F0008981882319F700002F960FB6F894DEBF85
:100400000FBECDBFDF91CF911F910F910895CF9374
:10041000DF93CDB7DEB780913C01882F90E0833029
:10042000910509F447C0843091054CF48130910561
:10043000E9F0823091055CF5009769F055C0853090
:10044000910509F447C085309105D4F186309105B6
:1004500009F443C049C08091D601883709F041C0F2
:1004600080913C018F5F80933C013BC08091D6011D
:10047000893731F480913C018F5F80933C0133C018
:100480008091D601883779F110923C012CC080917F
:10049000D601813321F483E080933C0125C0809113
:1004A000D601823321F484E080933C011DC0109278
:1004B0003C011AC081E080933B0110923C0114C0C2
:1004C0008091D6018093540181E080933D01109288
:1004D0003C010AC010923C0107C010923C01000090
:1004E00003C0000001C00000DF91CF910895CF93B9
:1004F000DF93CDB7DEB780913D01882F90E081304A
:10050000910559F0823091050CF451C0823091056B
:1005100091F08330910581F14FC010923F0110920C
:100520003E0180913D018F5F80933D018CE290E020
:10053000FC01108241C080913E0190913F010196E3
:1005400090933F0180933E0180913E0190913F0145
:10055000843FF1E09F0769F58CE290E0209154011F
:10056000FC01208310923F0110923E0180913D01D9
:100570008F5F80933D011DC080913E0190913F01AE
:10058000019690933F0180933E0180913E019091AE
:100590003F018033F5E79F0771F48CE290E0FC01A6
:1005A000108210923D0181E080933B0104C0000065
:1005B00003C0000001C00000DF91CF910895CF93E8
:1005C000DF93CDB7DEB780914001882F90E0823075
:1005D0009105E1F0833091053CF4009709F4C4C023
:1005E0008130910551F0C7C08330910509F471C085
:1005F0008430910509F495C0BEC081E080933B0131
:10060000809140018F5F80934001B5C080913B0194
:10061000882309F0ABC08091500190915101A091C5
:100620005201B0915301803223E09207A105B10538
:10063000D0F48CE290E0FC01108280914701882385
:10064000E1F789E790E09093D8018093D7010E9469
:10065000F303809147018823E1F7809140018F5F88
:100660008093400183C08CE290E028E1FC0120836C
:10067000809147018823E1F78091500190915101C9
:10068000A0915201B09153012B2F2F932A2F2F931A
:10069000292F2F938F9381E291E0892F8F9381E20D
:1006A00091E08F9387ED91E0892F8F9387ED91E013
:1006B0008F930E94190A8DB79EB708960FB6F894CB
:1006C000DEBF0FBECDBF0E94F30381E080934001E7
:1006D0004DC0809143018F5F80934301809143011E
:1006E000843631F48CE290E0FC01108210924301D8
:1006F0008091410190914201019690934201809333
:1007000041018CE290E02AE5FC01208380914101C7
:10071000909142018436910559F581E08093400122
:1007200027C08CE290E026E2FC01208381E08093E8
:100730003B018091500190915101A0915201B091E3
:1007400053018132F3E09F07A105B10598F08CE2D7
:1007500090E0FC0110828CE290E027E1FC01208314
:1007600081E08093400106C0000005C0000003C086
:10077000000001C00000DF91CF910895CF93DF9377
:10078000CDB7DEB789E290E02FE2FC01208380E95B
:1007900090E0FC01108285E990E026E0FC012083D6
:1007A0008AE290E028E0FC012083DF91CF91089558
:1007B000CF93DF93CDB7DEB789E990E02FE2FC015C
:1007C000208388E990E0FC0110828DE990E026E02A
:1007D000FC0120838AE990E028EDFC0120837894D5
:1007E000DF91CF910895CF93DF93CDB7DEB710920D
:1007F000460180914601882F90E089529E4FFC016E
:100800008081882381F081E0809347018CE990E02A
:1008100020914601222F30E029523E4FF9012081DC
:10082000FC01208302C010924701DF91CF9108950F
:100830001F920F9200905F000F92112400905B00B6
:100840000F9210925B002F933F938F939F93EF93A0
:10085000FF93CF93DF93CDB7DEB7809146018F5FD3
:100860008093460180914601882F90E089529E4FE7
:10087000FC018081882369F08CE990E02091460199
:10088000222F30E029523E4FF9012081FC012083C4
:1008900002C010924701DF91CF91FF91EF919F919C
:1008A0008F913F912F910F9000925B000F900092DB
:1008B0005F000F901F9018951F920F9200905F009D
:1008C0000F92112400905B000F9210925B002F9307
:1008D0003F934F935F936F937F938F939F93AF93C8
:1008E000BF93EF93FF93CF93DF93CDB7DEB78CE940
:1008F00090E0FC0180818093D6010E940702DF9185
:10090000CF91FF91EF91BF91AF919F918F917F9187
:100910006F915F914F913F912F910F9000925B00EB
:100920000F9000925F000F901F901895CF93DF9368
:1009300000D0CDB7DEB71A8219820E9413010E943F
:10094000BE030E94D80310923A0110923B0110920C
:100950003C0110923D0181E0809340010E94AA0079
:100960000E9467000E94DF02F9CFCF92DF92EF92E0
:10097000FF920F931F936B017C0120E030E040E079
:100980005FE40E94A40787FD0EC020E030E040E055
:100990005FE4C701B6010E9460060E9402088B0155
:1009A0009C01305806C0C701B6010E9402088B01A5
:1009B0009C01B801C9011F910F91FF90EF90DF904A
:1009C000CF900895A0E0B0E0E8EEF4E00C94E609E2
:1009D0003C01CB01EA01D3012C91223008F43EC145
:1009E000FB013081323008F436C1243071F43430E8
:1009F00009F034C111962C918181281709F42EC178
:100A0000B1E36B2EB1E07B2E29C1343009F423C150
:100A1000323091F4223009F021C128E0F301DA01EB
:100A200001900D922A95E1F7DB0111968C91F3016B
:100A300091818923898311C1223009F40CC1D3012A
:100A40001296ED91FC911397DB0112966D917C91BA
:100A50001397D30114960D911D912D913C911797E9
:100A6000DC011496CD90DD90ED90FC901797AF01CE
:100A7000461B570BDA0157FF04C0AA27BB27A41B4C
:100A8000B50BA032B1050CF065C0141615067CF547
:100A9000B701A6010A2E04C076956795579547952C
:100AA0000A94D2F7812C912C5401839404C0880CB1
:100AB000991CAA1CBB1CAA95D2F7B1E08B1A91080D
:100AC000A108B1088C209D20AE20BF20C12CD12CC4
:100AD0007601C39481149104A104B10419F4C12CCA
:100AE000D12C7601C42AD52AE62AF72A3EC0452B06
:100AF000E1F1EA0FFB1FB901A8010A2E04C07695A7
:100B00006795579547950A94D2F7812C912C5401FB
:100B1000839404C0880C991CAA1CBB1CAA95D2F70C
:100B2000A1E08A1A9108A108B10880229122A2228C
:100B3000B32201E010E020E030E081149104A10430
:100B4000B10419F400E010E09801042B152B262BBA
:100B5000372B0BC06E177F0724F4C12CD12C7601E4
:100B600004C0FB0100E010E09801D30111964C9104
:100B7000DC0111968C91481709F442C0442349F0D6
:100B8000D701C601801B910BA20BB30B8C019D01F9
:100B900004C00C191D092E093F0937FD04C0198234
:100BA000FB83EA830BC081E08983FB83EA83309572
:100BB0002095109501951F4F2F4F3F4F0C831D839C
:100BC0002E833F830DC0880F991FAA1FBB1F8C83E4
:100BD0009D83AE83BF838A819B8101979B838A8398
:100BE0008C819D81AE81BF818C019D0101501109D5
:100BF000210931090F3F1F4F2F4F3F4320F30BC0F7
:100C00004983FB83EA830C0D1D1D2E1D3F1D0C83A4
:100C10001D832E833F8383E088830C811D812E8179
:100C20003F8137FF1AC0D901C80181709927AA27CF
:100C3000BB273695279517950795802B912BA22BCF
:100C4000B32B8C839D83AE83BF838A819B81019666
:100C50009B838A8302C03C0101C03E01C301CDB722
:100C6000DEB7EEE00C94020AA0E2B0E0EAE3F6E0C0
:100C70000C94F2096D8F7E8F8F8F98A3298F3A8FF6
:100C80004B8F5C8FBE016F5E7F4FCE014D960E94F1
:100C90001209BE01675F7F4FCE0149960E9412097B
:100CA000AE014F5F5F4FBE01675F7F4FCE01419640
:100CB0000E94E2040E945108A096E2E00C940E0A01
:100CC000A0E2B0E0E6E6F6E00C94F2096D8F7E8FCC
:100CD0008F8F98A3298F3A8F4B8F5C8FBE016F5EE9
:100CE0007F4FCE014D960E941209BE01675F7F4F74
:100CF000CE0149960E9412098A8591E089278A8748
:100D0000AE014F5F5F4FBE01675F7F4FCE014196DF
:100D10000E94E2040E945108A096E2E00C940E0AA0
:100D2000A0E2B0E0E6E9F6E00C94E4096D8F7E8F76
:100D30008F8F98A3298F3A8F4B8F5C8FBE016F5E88
:100D40007F4FCE014D960E941209BE01675F7F4F13
:100D5000CE0149960E9412099989923008F412C076
:100D60008985823008F41AC0943021F4823009F465
:100D7000B4C008C0843021F4923009F4AEC00EC073
:100D8000923051F481E02A899A85291301C080E0CC
:100D90008A8BCE014196A3C0823051F481E02A892A
:100DA0009A85291301C080E08A87CE01099697C0F1
:100DB0008D889E88AF88B88C0D851E852F853889D3
:100DC000E0E2F0E080E090E0DC01C12CD12C760183
:100DD00040E050E0BA0180FE18C0400F511F621F72
:100DE000731F8C0D9D1DAE1DBF1D412C512C32015A
:100DF0004394401751076207730718F0412C512C98
:100E00003201840D951DA61DB71DCC0CDD1CEE1CFA
:100E1000FF1C37FF02C06894C0F8000F111F221F8B
:100E2000331FB694A794979487943197A1F62B8992
:100E30003C89EB85FC852E0F3F1F2E5F3F4F3C8387
:100E40002B8321E0EA893A85E31301C020E02A835D
:100E5000EB81FC810CC080FF05C0769567955795A6
:100E600047957068B695A795979587953196B7FD84
:100E7000F2CF9F010CC0880F991FAA1FBB1F77FDDF
:100E80008160440F551F661F771F2150310900975D
:100E9000A105E0E4BE0778F32B833C838C019D0120
:100EA0000F7711272227332700341105210531053B
:100EB00059F487FD09C0452B462B472B29F0805C50
:100EC0009F4FAF4FBF4F80788D839E83AF83B8878E
:100ED00083E08983CE01019602C081E391E00E9404
:100EE0005108A096E0E10C94000AA8E1B0E0EBE71D
:100EF000F7E00C94F2096D8B7E8B8F8B988F298B8A
:100F00003A8B4B8B5C8BBE01675F7F4FCE01459662
:100F10000E941209BE016F5F7F4FCE0141960E9471
:100F200012098985823058F08981823040F0BE01F3
:100F30006F5F7F4FCE0109960E94810901C08FEF3C
:100F40006896E2E00C940E0AA8E1B0E0EAEAF7E065
:100F50000C94F2096D8B7E8B8F8B988F298B3A8B3B
:100F60004B8B5C8BBE01675F7F4FCE0145960E9425
:100F70001209BE016F5F7F4FCE0141960E94120998
:100F80008985823058F08981823040F0BE016F5FE0
:100F90007F4FCE0109960E94810901C08FEF6896AC
:100FA000E2E00C940E0AA8E1B0E0E9EDF7E00C9461
:100FB000F2096D8B7E8B8F8B988F298B3A8B4B8BA5
:100FC0005C8BBE01675F7F4FCE0145960E94120980
:100FD000BE016F5F7F4FCE0141960E941209898545
:100FE000823058F08981823040F0BE016F5F7F4FC0
:100FF000CE0109960E94810901C081E06896E2E075
:101000000C940E0AACE0B0E0E8E0F8E00C94F009D3
:1010100069877A878B879C87BE016F5F7F4FCE0180
:1010200009960E9412098981823091F1823080F103
:10103000843041F48A81882331F100E010E020E01F
:1010400030E829C02B813C8137FD22C02F3131058A
:101050008CF78EE190E0821B930B0D811E812F8116
:10106000388504C036952795179507958A95D2F748
:101070008A81882381F030952095109501951F4F26
:101080002F4F3F4F08C00FEF1FEF2FEF3FE703C079
:1010900000E010E09801B801C9012C96E4E00C943E
:1010A0000C0A0F931F93CF93FC01448155816681F5
:1010B0007781C1818081823020F460618FEF90E080
:1010C000A3C0843009F49BC0823009F492C041155A
:1010D00051056105710509F48FC0228133812238E1
:1010E0008FEF38070CF057C0E2E8FFEFE21BF30B7D
:1010F000EA31F10564F58A019B010E2E04C0369594
:101100002795179507950A94D2F781E090E0A0E023
:10111000B0E004C0880F991FAA1FBB1FEA95D2F741
:101120000197A109B10984239523A623B72341E0A0
:1011300050E060E070E0892B8A2B8B2B19F440E0A3
:1011400050E0BA01402B512B622B732B03C040E0BF
:1011500050E0BA01DB01CA018F779927AA27BB2784
:1011600080349105A105B10539F447FF09C0405C01
:101170005F4F6F4F7F4F04C0415C5F4F6F4F7F4F9A
:1011800081E090E041155105610520E4720748F5C2
:1011900080E090E026C0203831058CF5DB01CA01E3
:1011A0008F779927AA27BB2780349105A105B10520
:1011B00039F447FF09C0405C5F4F6F4F7F4F04C059
:1011C000415C5F4F6F4F7F4F77FD04C0C90181586D
:1011D0009F4F07C07695679557954795C9018058E9
:1011E0009F4F97E076956795579547959A95D1F7D4
:1011F0000BC080E090E005C080E090E005C08FEF7C
:1012000090E040E050E0BA01982F9695C0FB97F926
:10121000362F80FB37F9642F752F832FCF911F91C5
:101220000F910895CF92DF92EF92DC01FB01CC90F9
:101230001196DC90119712968C9112973FE7E32E4E
:10124000E8226E2DA60170E0982F991F9927991F0B
:1012500013962C91822F880F892B90E027FB222751
:1012600020F92183009729F5411551056105710584
:1012700011F482E027C082E89FEF9383828327E006
:10128000440F551F661F771F2A95D1F783E080838F
:1012900009C0440F551F661F771F828193810197F4
:1012A0009383828341155105610580E4780788F3B3
:1012B00020C08F3F910579F44115510561057105F5
:1012C00019F484E0808319C0E4FE03C081E08083C8
:1012D00010C010820EC08F5791099383828383E0E0
:1012E000808387E0440F551F661F771F8A95D1F7CB
:1012F00070644483558366837783EF90DF90CF904B
:101300000895CF93FC01DB019081923008F452C024
:101310008C91823008F44EC0943071F4843039F4EA
:1013200011962C9130E08181281B310948C08181C0
:10133000882309F43FC03BC0843029F411968C9176
:10134000811138C034C0923019F48230B9F735C0F9
:10135000823069F3C18111968C911197C8131DC019
:101360002281338112968D919C9113978217930756
:101370000CF413C0281739070CF417C044815581A9
:101380006681778114968D919D910D90BC91A02DD1
:1013900084179507A607B70718F4C11108C00AC03B
:1013A000481759076A077B0740F4C11103C02FEFA4
:1013B0003FEF05C021E030E002C020E030E0C9018D
:1013C000CF9108952F923F924F925F926F927F92AA
:1013D0008F929F92AF92BF92CF92DF92EF92FF9245
:1013E0000F931F93CF93DF93CDB7DEB7CA1BDB0BF1
:1013F0000FB6F894DEBF0FBECDBF09942A88398896
:1014000048885F846E847D848C849B84AA84B9849C
:10141000C884DF80EE80FD800C811B81AA81B981A8
:10142000CE0FD11D0FB6F894DEBF0FBECDBFED01BC
:1014300008950F931F93CF93DF93CDB7DEB76097D7
:101440000FB6F894DEBF0FBECDBF0F89188D86E0B2
:101450008C831A8309838FEF9FE79E838D83AE0170
:10146000455E5F4F588B4F87698D7A8DCE0101960F
:101470000E944A0AEF81F885E00FF11F1082609602
:101480000FB6F894DEBF0FBECDBFDF91CF911F9195
:101490000F9108952F923F924F925F926F927F9299
:1014A0008F929F92AF92BF92CF92DF92EF92FF9274
:1014B0000F931F93CF93DF93CDB7DEB72C970FB663
:1014C000F894DEBF0FBECDBF7C016B018A01FC0129
:1014D00017821682838181FFC7C188248394912C4F
:1014E0008C0E9D1EF7019381F60193FD859193FF6C
:1014F00081916F01882309F4B3C1853239F493FDDA
:10150000859193FF81916F01853229F4B70190E0B5
:101510000E94660CE7CF712C312C20E02032A8F419
:101520008B3261F028F4803251F0833271F40BC0B9
:101530008D3239F0803349F4216028C02260246064
:1015400025C0286023C0206121C027FD27C0382F77
:1015500030533A3078F426FF06C0FAE07F9E300D13
:101560001124732E13C08AE0389E300D1124332EBF
:1015700020620CC08E3221F426FD72C1206406C0A8
:101580008C3611F4206802C0883641F4F60193FDD0
:10159000859193FF81916F018111C0CF982F955450
:1015A000933018F09052933028F40C5F1F4FFFE3F4
:1015B000F9830DC0833631F0833771F0833509F03C
:1015C0005EC023C0F801808189830E5F1F4F6624AF
:1015D0006394712C540115C02801F2E04F0E511C88
:1015E000F801A080B18026FF03C0672D70E002C023
:1015F0006FEF7FEFC5012C870E945B0C3C018201DD
:101600002C856FE7262E222218C02801F2E04F0E0B
:10161000511CF801A080B18026FF03C0672D70E047
:1016200002C06FEF7FEFC5012C870E94500C3C0178
:101630002C8550E8252E222A820123FC1CC006C0DE
:10164000B70180E290E00E94660C3A94832D90E00E
:1016500068167906A8F30FC0F50127FC859127FECF
:1016600081915F01B70190E00E94660C31103A94BD
:10167000F1E06F1A71086114710471F7EEC08436DD
:1016800011F0893641F5F80127FF07C060817181AB
:10169000828193810C5F1F4F08C060817181882710
:1016A00077FD8095982F0E5F1F4F4FE6642E6222C4
:1016B00097FF09C090958095709561957F4F8F4FEA
:1016C0009F4FF0E86F2A2AE030E0A4010E94920CBC
:1016D000A82EA81844C0853731F43FEEB32EB222AD
:1016E0002AE030E024C099EFB92EB2228F36B9F04B
:1016F00020F4883509F0B4C00DC0803721F0883758
:1017000009F0AEC002C020E1B22AB4FE0BC084E0F2
:10171000B82A08C024FF09C0E6E0BE2A06C028E0B7
:1017200030E005C020E130E002C020E132E0F80105
:10173000B7FE07C060817181828193810C5F1F4F6A
:1017400006C06081718180E090E00E5F1F4FA401B0
:101750000E94920CA82EA8188FE7682E6B2066FEB8
:101760000BC0362D3E7FA71450F464FE0AC062FC05
:1017700008C0362D3E7E05C0BA2C362D03C0BA2CCB
:1017800001C0B72C34FF0DC0FE01EA0DF11D8081B0
:10179000803311F4397E09C032FF06C0B394B3948C
:1017A00004C0832F867809F0B39433FD14C030FF52
:1017B0000FC07A2CB31460F4730C7B18B32C08C0E0
:1017C000B70180E290E03C870E94660CB3943C85B0
:1017D000B314B0F304C0B31410F43B1801C0312C9F
:1017E00034FF12C0B70180E390E03C870E94660C92
:1017F0003C8532FF1EC031FF03C088E590E002C087
:1018000088E790E0B7010CC0832F867891F031FD16
:1018100002C080E201C08BE237FD8DE2B70190E0AB
:101820000E94660C06C0B70180E390E00E94660C3F
:101830007A94A714C0F3AA94F401EA0DF11DB7013C
:10184000808190E00E94660CA110F5CF06C0B70120
:1018500080E290E00E94660C3A943110F8CF42CEBC
:10186000F7012681378102C02FEF3FEFC9012C9687
:101870000FB6F894DEBF0FBECDBFDF91CF911F91A1
:101880000F91FF90EF90DF90CF90BF90AF909F901F
:101890008F907F906F905F904F903F902F90089522
:1018A000FC010590615070400110D8F7809590952B
:1018B0008E0F9F1F0895FC01615070400190011030
:1018C000D8F7809590958E0F9F1F08950F931F93C3
:1018D000CF93DF938C01EB018B8181FD03C00FEF70
:1018E0001FEF1AC082FF0DC02E813F818C819D8128
:1018F0002817390764F4E881F9810193F983E883B3
:1019000006C0E885F985802F0995892B41F78E81DE
:101910009F8101969F838E83C801DF91CF911F9194
:101920000F910895FA01AA27283051F1203181F151
:10193000E8946F936E7F6E5F7F4F8F4F9F4FAF4FD7
:10194000B1E03ED0B4E03CD0670F781F891F9A1FEA
:10195000A11D680F791F8A1F911DA11D6A0F711D9E
:10196000811D911DA11D20D009F468943F912AE0AA
:10197000269F11243019305D3193DEF6CF01089592
:10198000462F4770405D4193B3E00FD0C9F7F6CFC3
:10199000462F4F70405D4A3318F0495D31FD40528B
:1019A000419302D0A9F7EACFB4E0A6959795879521
:1019B00077956795BA95C9F7009761057105089500
:1019C0009B01AC010A2E06945795479537952795AC
:1019D000BA95C9F7620F731F841F951FA01D089544
:0419E000F894FFCFA9
:1019E4007878787878787878787878787878787873
:1019F40078787878780A0D003E2020256C750A0DD9
:101A04000020787878787878787820256C750A0DB5
:0A1A140000000000000000000000C8
:00000001FF
