:100000000C9446000C9465000C9465000C946500FB
:100010000C9465000C9465000C9465000C946500CC
:100020000C9465000C9465000C9465000C946500BC
:100030000C9465000C9465000C9465000C946500AC
:100040000C9465000C9465000C9465000C9465009C
:100050000C9465000C9465000C9465000C9465008C
:100060000C9465000C9465000C9465000C9465007C
:100070000C9465000C9465000C940C030C946500C2
:100080000C94C8020C9465000C94650011241FBEEA
:10009000CFEFD0E1DEBFCDBF11E0A0E0B1E0E6E3FD
:1000A000F7E100E00BBF02C007900D92A433B10747
:1000B000D9F712E0A4E3B1E001C01D92AF3BB10754
:1000C000E1F70E9446030C94990B0C940000CF9327
:1000D000DF93CDB7DEB780913401882F90E0823076
:1000E000910529F18330910534F4009769F181304D
:1000F000910559F02CC084309105F9F084309105B8
:10010000CCF085309105E1F022C080913A0188233E
:10011000E9F488E1E0E0F1E0A5ECB1E001900D92B6
:100120008A95E1F70E94A302109234010FC0109249
:1001300034010DC0109234010AC01092340107C07E
:1001400010923401000003C0000001C00000DF91E4
:10015000CF910895CF93DF93CDB7DEB7809135016E
:10016000882F90E082309105F1F0833091053CF4C6
:10017000009709F452C08130910569F051C0843074
:10018000910509F443C084309105ECF18530910567
:1001900009F43FC045C00E942C01809135018F5F5A
:1001A000809335013DC080913A018823C1F580914B
:1001B0003F0190914001A0914101B09142012B2F4C
:1001C0002F932A2F2F93292F2F938F9388E191E03C
:1001D000892F8F9388E191E08F9385EC91E0892FAF
:1001E0008F9385EC91E08F930E94C2088DB79EB7E4
:1001F00008960FB6F894DEBF0FBECDBF0E94A302D3
:10020000109235010CC0109235010AC010923501D0
:1002100007C010923501000003C0000001C00000BB
:10022000DF91CF910895CF93DF93CDB7DEB781E310
:1002300090E021E330E0F90120812061FC0120837E
:1002400081E390E021E330E0F90120812F7DFC0182
:100250002083DF91CF9108950F931F93CF93DF9366
:10026000CDB7DEB72F970FB6F894DEBF0FBECDBF68
:10027000198282E390E022E330E0F90120812061DD
:10028000FC01208380E090E0A8E4B3E48A839B83B0
:10029000AC83BD8326E636E646EE54E46A817B8174
:1002A0008C819D810E943905DC01CB018E839F8367
:1002B000A887B98720E030E040E85FE36E817F8166
:1002C000888599850E947C0688232CF481E090E043
:1002D0009B878A8742C020E03FEF4FE757E46E815B
:1002E0007F81888599850E941E06181664F520E096
:1002F00030E040E251E46A817B818C819D810E94E3
:100300003905DC01CB01BC01CD010E945E03DC019B
:10031000CB019B878A8712C088EB90E09D878C87F2
:100320008C859D858C01C8010197F1F78C011D8793
:100330000C878A859B8501979B878A878A859B8501
:10034000009751F717C06E817F81888599850E943B
:100350005E03DC01CB019B878A878A859B859F870B
:100360008E878E859F858C01F8013197F1F78F017B
:100370001F870E8782E390E022E330E0F9012081BD
:100380002F7EFC01208380E390E0FC01808180725D
:10039000898301C0000080E390E0FC0180818072CD
:1003A000898389818823B1F3000010923F01109264
:1003B0004001109241011092420101C00000809161
:1003C0003F0190914001A0914101B09142010196FD
:1003D000A11DB11D80933F0190934001A093410165
:1003E000B093420180E390E0FC01808180728983B8
:1003F0008981882319F700002F960FB6F894DEBF85
:100400000FBECDBFDF91CF911F910F910895CF9374
:10041000DF93CDB7DEB780913601882F90E0823030
:10042000910581F18330910534F4009781F081309A
:100430009105B9F050C08430910509F43CC0843076
:1004400091059CF18530910509F43EC044C080912E
:10045000C4018837E9F5809136018F5F80933601BA
:1004600037C08091C401893731F4809136018F5FA4
:10047000809336012FC08091C401883759F11092C2
:10048000360128C08091C401813321F483E0809338
:10049000360121C08091C401823321F484E080932D
:1004A000360119C01092360116C081E080933501E3
:1004B0001092360110C08CE290E02091C401FC0142
:1004C00020831092360107C010923601000003C04D
:1004D000000001C00000DF91CF910895CF93DF931A
:1004E000CDB7DEB789E290E02FE2FC01208380E9FE
:1004F00090E0FC01108285E990E026E0FC01208379
:100500008AE290E028E4FC012083DF91CF910895F6
:10051000CF93DF93CDB7DEB789E990E02FE2FC01FE
:10052000208388E990E0FC0110828DE990E026E0CC
:10053000FC0120838AE990E028EDFC012083789477
:10054000DF91CF910895CF93DF93CDB7DEB71092AF
:10055000390180913901882F90E08B539E4FFC0127
:100560008081882381F081E080933A018CE990E0DA
:1005700020913901222F30E02B533E4FF901208189
:10058000FC01208302C010923A01DF91CF910895BF
:100590001F920F9200905F000F92112400905B0059
:1005A0000F9210925B002F933F938F939F93EF9343
:1005B000FF93CF93DF93CDB7DEB7809139018F5F83
:1005C0008093390180913901882F90E08B539E4FA1
:1005D000FC018081882369F08CE990E02091390149
:1005E000222F30E02B533E4FF9012081FC01208364
:1005F00002C010923A01DF91CF91FF91EF919F914C
:100600008F913F912F910F9000925B000F9000927D
:100610005F000F901F9018951F920F9200905F003F
:100620000F92112400905B000F9210925B002F93A9
:100630003F934F935F936F937F938F939F93AF936A
:10064000BF93EF93FF93CF93DF93CDB7DEB78CE9E2
:1006500090E0FC0180818093C4010E940702DF9139
:10066000CF91FF91EF91BF91AF919F918F917F912A
:100670006F915F914F913F912F910F9000925B008E
:100680000F9000925F000F901F901895CF93DF930B
:1006900000D0CDB7DEB71A8219820E9413010E94E2
:1006A0006E020E948802109234011092350110925D
:1006B00036010E94AA000E946700FBCFCF92DF9212
:1006C000EF92FF920F931F936B017C0120E030E0CB
:1006D00040E05FE40E944D0687FD0EC020E030E060
:1006E00040E05FE4C701B6010E9409050E94AB0625
:1006F0008B019C01305806C0C701B6010E94AB06B1
:100700008B019C01B801C9011F910F91FF90EF90DF
:10071000DF90CF900895A0E0B0E0E1E9F3E00C9421
:100720008F083C01CB01EA01D3012C91223008F45F
:100730003EC1FB013081323008F436C1243071F4FF
:10074000343009F034C111962C918181281709F4B5
:100750002EC1BBE26B2EB1E07B2E29C1343009F4EF
:1007600023C1323091F4223009F021C128E0F30195
:10077000DA0101900D922A95E1F7DB0111968C9137
:10078000F30191818923898311C1223009F40CC1BD
:10079000D3011296ED91FC911397DB0112966D91A6
:1007A0007C911397D30114960D911D912D913C913D
:1007B0001797DC011496CD90DD90ED90FC90179783
:1007C000AF01461B570BDA0157FF04C0AA27BB270E
:1007D000A41BB50BA032B1050CF065C014161506AC
:1007E0007CF5B701A6010A2E04C07695679557954A
:1007F00047950A94D2F7812C912C5401839404C01C
:10080000880C991CAA1CBB1CAA95D2F7B1E08B1AC4
:100810009108A108B1088C209D20AE20BF20C12CDA
:10082000D12C7601C39481149104A104B10419F46C
:10083000C12CD12C7601C42AD52AE62AF72A3EC03B
:10084000452BE1F1EA0FFB1FB901A8010A2E04C0F4
:1008500076956795579547950A94D2F7812C912CF8
:100860005401839404C0880C991CAA1CBB1CAA9533
:10087000D2F7A1E08A1A9108A108B108802291223A
:10088000A222B32201E010E020E030E081149104C4
:10089000A104B10419F400E010E09801042B152B19
:1008A000262B372B0BC06E177F0724F4C12CD12CBD
:1008B000760104C0FB0100E010E09801D30111961D
:1008C0004C91DC0111968C91481709F442C04423E5
:1008D00049F0D701C601801B910BA20BB30B8C0111
:1008E0009D0104C00C191D092E093F0937FD04C0E4
:1008F0001982FB83EA830BC081E08983FB83EA834F
:1009000030952095109501951F4F2F4F3F4F0C8329
:100910001D832E833F830DC0880F991FAA1FBB1F05
:100920008C839D83AE83BF838A819B8101979B8348
:100930008A838C819D81AE81BF818C019D01015094
:100940001109210931090F3F1F4F2F4F3F4320F35A
:100950000BC04983FB83EA830C0D1D1D2E1D3F1D1B
:100960000C831D832E833F8383E088830C811D814C
:100970002E813F8137FF1AC0D901C80181709927A4
:10098000AA27BB273695279517950795802B912B7E
:10099000A22BB32B8C839D83AE83BF838A819B81E3
:1009A00001969B838A8302C03C0101C03E01C301C2
:1009B000CDB7DEB7EEE00C94AB08A0E2B0E0E3EE1A
:1009C000F4E00C949B086D8F7E8F8F8F98A3298FF6
:1009D0003A8F4B8F5C8FBE016F5E7F4FCE014D967D
:1009E0000E94BB07BE01675F7F4FCE0149960E9400
:1009F000BB07AE014F5F5F4FBE01675F7F4FCE0108
:100A000041960E948B030E94FA06A096E2E00C94A5
:100A1000B708A0E2B0E0EFE0F5E00C949B086D8F22
:100A20007E8F8F8F98A3298F3A8F4B8F5C8FBE015B
:100A30006F5E7F4FCE014D960E94BB07BE01675F80
:100A40007F4FCE0149960E94BB078A8591E0892796
:100A50008A87AE014F5F5F4FBE01675F7F4FCE0158
:100A600041960E948B030E94FA06A096E2E00C9445
:100A7000B708A0E2B0E0EFE3F5E00C948D086D8FCD
:100A80007E8F8F8F98A3298F3A8F4B8F5C8FBE01FB
:100A90006F5E7F4FCE014D960E94BB07BE01675F20
:100AA0007F4FCE0149960E94BB079989923008F486
:100AB00012C08985823008F41AC0943021F4823043
:100AC00009F4B4C008C0843021F4923009F4AEC0F7
:100AD0000EC0923051F481E02A899A85291301C011
:100AE00080E08A8BCE014196A3C0823051F481E030
:100AF0002A899A85291301C080E08A87CE01099648
:100B000097C08D889E88AF88B88C0D851E852F85EF
:100B10003889E0E2F0E080E090E0DC01C12CD12CEB
:100B2000760140E050E0BA0180FE18C0400F511F2E
:100B3000621F731F8C0D9D1DAE1DBF1D412C512CBE
:100B400032014394401751076207730718F0412C94
:100B5000512C3201840D951DA61DB71DCC0CDD1C3A
:100B6000EE1CFF1C37FF02C06894C0F8000F111F75
:100B7000221F331FB694A794979487943197A1F6B8
:100B80002B893C89EB85FC852E0F3F1F2E5F3F4F45
:100B90003C832B8321E0EA893A85E31301C020E0FE
:100BA0002A83EB81FC810CC080FF05C07695679598
:100BB000579547957068B695A795979587953196FF
:100BC000B7FDF2CF9F010CC0880F991FAA1FBB1F52
:100BD00077FD8160440F551F661F771F2150310933
:100BE0000097A105E0E4BE0778F32B833C838C01DA
:100BF0009D010F7711272227332700341105210586
:100C0000310559F487FD09C0452B462B472B29F0A8
:100C1000805C9F4FAF4FBF4F80788D839E83AF83A3
:100C2000B88783E08983CE01019602C08BE291E010
:100C30000E94FA06A096E0E10C94A908A8E1B0E0B1
:100C4000E4E2F6E00C949B086D8B7E8B8F8B988F83
:100C5000298B3A8B4B8B5C8BBE01675F7F4FCE013C
:100C600045960E94BB07BE016F5F7F4FCE01419644
:100C70000E94BB078985823058F08981823040F01C
:100C8000BE016F5F7F4FCE0109960E942A0801C006
:100C90008FEF6896E2E00C94B708A8E1B0E0E3E5D6
:100CA000F6E00C949B086D8B7E8B8F8B988F298B35
:100CB0003A8B4B8B5C8BBE01675F7F4FCE014596B5
:100CC0000E94BB07BE016F5F7F4FCE0141960E941D
:100CD000BB078985823058F08981823040F0BE019F
:100CE0006F5F7F4FCE0109960E942A0801C08FEFE7
:100CF0006896E2E00C94B708A8E1B0E0E2E8F6E01C
:100D00000C949B086D8B7E8B8F8B988F298B3A8BE5
:100D10004B8B5C8BBE01675F7F4FCE0145960E9477
:100D2000BB07BE016F5F7F4FCE0141960E94BB079C
:100D30008985823058F08981823040F0BE016F5F32
:100D40007F4FCE0109960E942A0801C081E0689673
:100D5000E2E00C94B708ACE0B0E0E1EBF6E00C9414
:100D6000990869877A878B879C87BE016F5F7F4F61
:100D7000CE0109960E94BB078981823091F18230B1
:100D800080F1843041F48A81882331F100E010E061
:100D900020E030E829C02B813C8137FD22C02F3173
:100DA00031058CF78EE190E0821B930B0D811E8143
:100DB0002F81388504C036952795179507958A9514
:100DC000D2F78A81882381F030952095109501957E
:100DD0001F4F2F4F3F4F08C00FEF1FEF2FEF3FE781
:100DE00003C000E010E09801B801C9012C96E4E0CE
:100DF0000C94B5080F931F93CF93FC014481558148
:100E000066817781C1818081823020F460618FEFBB
:100E100090E0A3C0843009F49BC0823009F492C0F2
:100E2000411551056105710509F48FC02281338197
:100E300022388FEF38070CF057C0E2E8FFEFE21BD3
:100E4000F30BEA31F10564F58A019B010E2E04C013
:100E500036952795179507950A94D2F781E090E08B
:100E6000A0E0B0E004C0880F991FAA1FBB1FEA953D
:100E7000D2F70197A109B10984239523A623B723AB
:100E800041E050E060E070E0892B8A2B8B2B19F455
:100E900040E050E0BA01402B512B622B732B03C072
:100EA00040E050E0BA01DB01CA018F779927AA27F9
:100EB000BB2780349105A105B10539F447FF09C06E
:100EC000405C5F4F6F4F7F4F04C0415C5F4F6F4F7F
:100ED0007F4F81E090E041155105610520E47207E4
:100EE00048F580E090E026C0203831058CF5DB0124
:100EF000CA018F779927AA27BB2780349105A105BE
:100F0000B10539F447FF09C0405C5F4F6F4F7F4F19
:100F100004C0415C5F4F6F4F7F4F77FD04C0C90134
:100F200081589F4F07C07695679557954795C9019A
:100F300080589F4F97E076956795579547959A9576
:100F4000D1F70BC080E090E005C080E090E005C0E4
:100F50008FEF90E040E050E0BA01982F9695C0FBEB
:100F600097F9362F80FB37F9642F752F832FCF9198
:100F70001F910F910895CF92DF92EF92DC01FB0158
:100F8000CC901196DC90119712968C9112973FE7B6
:100F9000E32EE8226E2DA60170E0982F991F992765
:100FA000991F13962C91822F880F892B90E027FB95
:100FB000222720F92183009729F541155105610564
:100FC000710511F482E027C082E89FEF938382834A
:100FD00027E0440F551F661F771F2A95D1F783E03E
:100FE000808309C0440F551F661F771F828193813C
:100FF00001979383828341155105610580E4780749
:1010000088F320C08F3F910579F4411551056105A2
:10101000710519F484E0808319C0E4FE03C081E007
:10102000808310C010820EC08F57910993838283F2
:1010300083E0808387E0440F551F661F771F8A95E2
:10104000D1F770644483558366837783EF90DF9094
:10105000CF900895CF93FC01DB019081923008F48A
:1010600052C08C91823008F44EC0943071F48430B8
:1010700039F411962C9130E08181281B310948C048
:101080008181882309F43FC03BC0843029F4119644
:101090008C91811138C034C0923019F48230B9F784
:1010A00035C0823069F3C18111968C911197C813B4
:1010B0001DC02281338112968D919C9113978217C6
:1010C00093070CF413C0281739070CF417C0448198
:1010D00055816681778114968D919D910D90BC917B
:1010E000A02D84179507A607B70718F4C11108C0EB
:1010F0000AC0481759076A077B0740F4C11103C0AB
:101100002FEF3FEF05C021E030E002C020E030E0EB
:10111000C901CF9108952F923F924F925F926F92A3
:101120007F928F929F92AF92BF92CF92DF92EF9277
:10113000FF920F931F93CF93DF93CDB7DEB7CA1BF8
:10114000DB0B0FB6F894DEBF0FBECDBF09942A8823
:10115000398848885F846E847D848C849B84AA84CB
:10116000B984C884DF80EE80FD800C811B81AA8158
:10117000B981CE0FD11D0FB6F894DEBF0FBECDBF23
:10118000ED0108950F931F93CF93DF93CDB7DEB793
:1011900060970FB6F894DEBF0FBECDBF0F89188DD4
:1011A00086E08C831A8309838FEF9FE79E838D836C
:1011B000AE01455E5F4F588B4F87698D7A8DCE01AA
:1011C00001960E94F308EF81F885E00FF11F10826D
:1011D00060960FB6F894DEBF0FBECDBFDF91CF9102
:1011E0001F910F9108952F923F924F925F926F92AD
:1011F0007F928F929F92AF92BF92CF92DF92EF92A7
:10120000FF920F931F93CF93DF93CDB7DEB72C9749
:101210000FB6F894DEBF0FBECDBF7C016B018A0113
:10122000FC0117821682838181FFC7C188248394C1
:10123000912C8C0E9D1EF7019381F60193FD8591F3
:1012400093FF81916F01882309F4B3C1853239F48A
:1012500093FD859193FF81916F01853229F4B70148
:1012600090E00E940F0BE7CF712C312C20E0203250
:10127000A8F48B3261F028F4803251F0833271F49B
:101280000BC08D3239F0803349F4216028C02260D0
:10129000246025C0286023C0206121C027FD27C00D
:1012A000382F30533A3078F426FF06C0FAE07F9E9C
:1012B000300D1124732E13C08AE0389E300D112496
:1012C000332E20620CC08E3221F426FD72C12064C0
:1012D00006C08C3611F4206802C0883641F4F6014D
:1012E00093FD859193FF81916F018111C0CF982F5C
:1012F0009554933018F09052933028F40C5F1F4FA0
:10130000FFE3F9830DC0833631F0833771F0833505
:1013100009F05EC023C0F801808189830E5F1F4FF2
:1013200066246394712C540115C02801F2E04F0E1D
:10133000511CF801A080B18026FF03C0672D70E02A
:1013400002C06FEF7FEFC5012C870E94040B3C01A8
:1013500082012C856FE7262E222218C02801F2E098
:101360004F0E511CF801A080B18026FF03C0672DED
:1013700070E002C06FEF7FEFC5012C870E94F90A71
:101380003C012C8550E8252E222A820123FC1CC01A
:1013900006C0B70180E290E00E940F0B3A94832DC3
:1013A00090E068167906A8F30FC0F50127FC859137
:1013B00027FE81915F01B70190E00E940F0B311071
:1013C0003A94F1E06F1A71086114710471F7EEC07C
:1013D000843611F0893641F5F80127FF07C0608196
:1013E0007181828193810C5F1F4F08C06081718180
:1013F000882777FD8095982F0E5F1F4F4FE6642E4C
:10140000622297FF09C090958095709561957F4FF6
:101410008F4F9F4FF0E86F2A2AE030E0A4010E942E
:101420003B0BA82EA81844C0853731F43FEEB32EED
:10143000B2222AE030E024C099EFB92EB2228F36D2
:10144000B9F020F4883509F0B4C00DC0803721F020
:10145000883709F0AEC002C020E1B22AB4FE0BC04A
:1014600084E0B82A08C024FF09C0E6E0BE2A06C00E
:1014700028E030E005C020E130E002C020E132E0A9
:10148000F801B7FE07C060817181828193810C5F92
:101490001F4F06C06081718180E090E00E5F1F4F9A
:1014A000A4010E943B0BA82EA8188FE7682E6B2082
:1014B00066FE0BC0362D3E7FA71450F464FE0AC0B2
:1014C00062FC08C0362D3E7E05C0BA2C362D03C006
:1014D000BA2C01C0B72C34FF0DC0FE01EA0DF11D7E
:1014E0008081803311F4397E09C032FF06C0B39485
:1014F000B39404C0832F867809F0B39433FD14C0ED
:1015000030FF0FC07A2CB31460F4730C7B18B32C2B
:1015100008C0B70180E290E03C870E940F0BB394B3
:101520003C85B314B0F304C0B31410F43B1801C0ED
:10153000312C34FF12C0B70180E390E03C870E9459
:101540000F0B3C8532FF1EC031FF03C088E590E0E1
:1015500002C088E790E0B7010CC0832F867891F035
:1015600031FD02C080E201C08BE237FD8DE2B701A0
:1015700090E00E940F0B06C0B70180E390E00E944C
:101580000F0B7A94A714C0F3AA94F401EA0DF11D8D
:10159000B701808190E00E940F0BA110F5CF06C02B
:1015A000B70180E290E00E940F0B3A943110F8CF1F
:1015B00042CEF7012681378102C02FEF3FEFC901EC
:1015C0002C960FB6F894DEBF0FBECDBFDF91CF9142
:1015D0001F910F91FF90EF90DF90CF90BF90AF9051
:1015E0009F908F907F906F905F904F903F902F9043
:1015F0000895FC010590615070400110D8F7809566
:1016000090958E0F9F1F0895FC01615070400190CE
:101610000110D8F7809590958E0F9F1F08950F9316
:101620001F93CF93DF938C01EB018B8181FD03C06E
:101630000FEF1FEF1AC082FF0DC02E813F818C81FA
:101640009D812817390764F4E881F9810193F983B2
:10165000E88306C0E885F985802F0995892B41F735
:101660008E819F8101969F838E83C801DF91CF91E8
:101670001F910F910895FA01AA27283051F12031C6
:1016800081F1E8946F936E7F6E5F7F4F8F4F9F4F16
:10169000AF4FB1E03ED0B4E03CD0670F781F891F58
:1016A0009A1FA11D680F791F8A1F911DA11D6A0F26
:1016B000711D811D911DA11D20D009F468943F91D9
:1016C0002AE0269F11243019305D3193DEF6CF01D8
:1016D0000895462F4770405D4193B3E00FD0C9F79E
:1016E000F6CF462F4F70405D4A3318F0495D31FD0B
:1016F0004052419302D0A9F7EACFB4E0A69597955E
:10170000879577956795BA95C9F700976105710533
:1017100008959B01AC010A2E06945795479537957D
:101720002795BA95C9F7620F731F841F951FA01DD7
:061730000895F894FFCFBC
:101736007878787878787878787878787878787823
:1017460078787878780A0D0044697374616E6365F9
:101756002069733A20256C750A0D00000000000010
:04176600000000007F
:00000001FF
